:0A0000000C94F5000C9446020C94D9
:10000A005D020C946D020C9400000C9475020C9421
:10001A0000000C9400000C9400000C9400000C9456
:10002A0000000C9400000C9400000C9400000C9446
:10003A0000000C9400000C9400000C9400000C9436
:10004A0000000C9400000C9400000C9400000C9426
:10005A0000000C9400000C9400000C9400000C9416
:10006A0000000C9400000C9400000C949F020C9465
:10007A0000000C9400000C9400000C9400000C94F6
:10008A0000007177BC70686A6F64CC5E7A597454E8
:10009A00B74F3D4B04470843453FB83B5D383335BE
:1000AA003732652FBC2C392ADB279E2581238321F1
:1000BA0017FDE3EE7AE1D2D4E0C89ABDF6B2EAA817
:1000CA006F9F7C960A8E11868B7E7177BC70686AE8
:1000DA006F64CC5E7A597454B74F3D4B044708435A
:1000EA00453FB83B5D3833353732652FBC2C392A4A
:1000FA00DB279E2581238321A21FDB1D2E1C991A33
:10010A001B19B2175D161C15ED13CE12C011C110C2
:10011A00D00FED0E160E4C0D8D0CD80B2E0B8D0A32
:10012A00F6096609DF086008E7071027E803640094
:10013A000A00010000100001100001000000000088
:10014A000000000000000100736574616B2121004A
:10015A007761736821210064657761746572212172
:10016A000046494E4953484544212100737461723F
:10017A007400706175736500706F776572206F66C1
:10018A00662E2E004D4F4445203A202564004445F2
:10019A00574154455220434F554E543A2564000066
:1001AA0080C00A000400460101003C055001080015
:1001BA0000055201070008055A010A000F056101EE
:1001CA000B0019056B0106002405760106002A05B5
:1001DA007C010C00300582010200E405AA0100003E
:1001EA00F894EE27ECBBF1E0F5BFE5BFE0936C00B5
:1001FA008DE0A2E0BB27ED938A95E9F780E090E1D4
:10020A00A0E0B1E0ED930197E9F7ECEAF1E085911E
:10021A009591009761F0A591B59105901590BF0150
:10022A00F00105900D920197E1F7FB01F0CF8BBF2A
:10023A00EFEFEDBFE0E1EEBFC0E0D5E00C94BF0206
:10024A00E0916200E160E093620085E38A95F1F74C
:10025A00E0916200EE7FE0936200029BFECFE0E055
:10026A00F0E0FDBDECBDE2E0EEBD0299FECFE8E0B4
:10027A00EEBDECB5FDB5DF01E4E7F0E01DD508956C
:10028A0042D4073008F006E01C3008F01BE0EEB557
:10029A00E87FEEBDECE0E09FF001DF01E12FF0E046
:1002AA00AE0FBF1F57971CF4EEB5E26002C0EEB561
:1002BA00E160EEBDA8E10A9FF001E457FF4FDF01BC
:1002CA00E12FF0E0EE0FFF1FEA0FFB1F16D5FBBD73
:1002DA00EABD0C940505E0E4EFBDE9E0EEBDE0E817
:1002EA0017D41DD423D438D4A4EFB1E039D4E4E030
:1002FA00EA93A0E03DD440D4E3E0EA93A7E038D4FF
:10030A002BD4A6EAB0E02CD427D4A4EFB1E0FED4D3
:10031A0006D405D40BD434D4A4EFB1E0F7D434D442
:10032A00E4E0EA93A7E024D42FD432D425D430D4FD
:10033A0027D4A8EEB3E0EAD4E0E0EFBDEEBDE8D3FF
:10034A0008952AD4A0E0B5E08AD3CC24DD2429D4A8
:10035A001CF0E0E0E1BFFBCFE3E0F0E0EC15FD05C7
:10036A0054F024D419F0E0E0E1BFFBCFE0E9E8BBA8
:10037A00E6E9E1BFF1CF20D41CF0E0E0E1BFFBCF1A
:10038A00E6E0F0E0EC15FD0554F010D419F0E0E0D9
:10039A00E1BFFBCFE0E5E8BBE6E9E1BFF1CF0895B5
:1003AA00FBD3A8E0B5E05BD3CC24DD24FAD31CF060
:1003BA00E0E0E1BFFBCF00D454F0F8D319F0E0E05D
:1003CA00E1BFFBCFE0E9E8BBE8ECE1BFF4CFE5E051
:1003DA00F0E0EC15FD051CF0E0E0E1BFF8CFE8E045
:1003EA00F0E0EC15FD0554F0E1D319F0E0E0E1BFCF
:1003FA00FBCFE0E5E8BBE8ECE1BFF1CF0895CCD351
:10040A00AFE0B5E02CD3E0E0E0933E05E0933F0592
:10041A00D8D3A0913E05B0913F05AE17BF0724F58A
:10042A00CC24DD24E2E0F0E0EC15FD0554F0BED367
:10043A0019F0E0E0E1BFFBCFE0E9E8BBEAEFE1BF9A
:10044A00F1CFE7E0F0E0EC15FD0554F0AFD319F079
:10045A00E0E0E1BFFBCFE0E5E8BBEAEFE1BFF1CFC7
:10046A00AEE3B5E0B3D3D4CFE0E0E1BF95D3A9E1E1
:10047A00B5E0F5D2A8EEB3E049D4F20131962F01E6
:10048A000895AAD3DDDEE0934205F0934305A091D7
:10049A004205B0914305549718F4F20131962F01A1
:1004AA00E2E0F0E04E165F0614F04424552431C011
:1004BA0093D3042C052811F4E0E0E1BF9BD339F46F
:1004CA00F40131964F019BD314F48824992421C056
:1004DA0083D390D319F4ACE3B5E078D3A2E31AC07E
:1004EA007BD3A0E4B5E072D361D321F48DD3A4E227
:1004FA00B5E0B5D2A0914005B091410512974CF0F4
:10050A0083D3AAE2B5E0ABD2E0E0E0934005E09302
:10051A004105A7E3B0E0FAD3E991EFBFF991E99178
:10052A00B991A9919991899179916991F9901990C3
:10053A0009901895AA93BA93EA93FA93EFB7EA93B4
:10054A0067D358D311F432D309F00DC0F5013196AF
:10055A005F01E4E6F0E0EA15FB0529F4F6013196BD
:10056A006F01AA24BB24E991EFBFF991E991B991EE
:10057A00A9911895EFEFEABBEBBBE7BBE0E0E8BB5C
:10058A00EFEFE4BBE5BBE0EFE1BBEFEFE2BBEFEE81
:10059A00E2B9E0E0E3B9E3E0E0936100E0E0E0BF64
:1005AA00ECE6E3BFE0E0E2BFE1BFE2E0E0938A000D
:1005BA002FD3E4E0E7BFE0937D00EAE2E0936A002C
:1005CA00E2E0EABFE7E1E9BFE8BFE0E0E0BDA0E1C1
:1005DA0055D2789424D33097A9F4E0E0F0E05F0193
:1005EA004F013F012F01E1BFE1E0F0E0E0933C055C
:1005FA00F0933D05D1D2A0E3B5E031D2A4EFB1E04A
:10060A0085D302D20CD3E130A0E0FA07E9F5FCD198
:10061A00E4E4F5E0FA93EA93EEE8F1E0FA93EA9378
:10062A00F40102D3E0E0EA93A0E0DDD1A4E4B5E06E
:10063A0016D2E4E9F5E0FA93EA93E8E9F1E0FA93ED
:10064A00EA93BFD2F1D2E0D2A4E9B5E008D2AED2A1
:10065A00D9F4082C092819F4E0E0E8BBE1BFE1E08D
:10066A00F0E0E815F90521F46CDE9ADEC8DE33DE27
:10067A00E2E0F0E0E815F90519F492DEC0DE2BDEBF
:10068A00BED211F4BCDE27DEA5CFFFCF03D39D0176
:10069A005E811296ED91FC9111973097E9F0D9019C
:1006AA00CCD28F01309759F00230E0E01E0760F09B
:1006BA00F80131978F01D9011496ED93FC93D90172
:1006CA00129684D231975083D901ED91FC911197FA
:1006DA00FF230AF07BD205C0D901EFEFFFEFED93BC
:1006EA00FC93DFD227960895BA93AA932697D2D27B
:1006FA0010E0AC85BD85E0E0F0E0ED93FC93EA897B
:10070A00FB893196EA8BFB8B3197E4912E2FE030EF
:10071A0009F408C1E12FE03031F4253211F411E077
:10072A0001C090D2FEC0E130A1F4253211F48AD280
:10073A00F7C012E040E000E02D3211F401E0F1C010
:10074A002B3211F44BE2EDC0203211F440E2E9C041
:10075A0002C0E23039F450E013E0203311F40068AB
:10076A00E0C003C0E33009F0DCC0203310F02A33C4
:10077A0008F007C0AAE05A9F502DE22FE0535E0FFF
:10078A00D0C0E22FE33639F464D2E889F989A4812A
:10079A00AA9365D2C5C0E33729F45BD266D29AD14F
:1007AA001E2F07C0E03749F454D25FD29FD11E2FC3
:1007BA00086002600F7730E037C0E43611F0E9369E
:1007CA0011F4046002C0E53731F4E4E3F1E0EE83AA
:1007DA00FF8315E00CC0E83511F4086003C0E83760
:1007EA0009F09EC0EEE3F1E0EE83FF8314E002FF1E
:1007FA0015C02FD2A889B9891496ED91FD91EA877F
:10080A00FB87AB85AA2322F453D2EA87FB874DE202
:10081A00403011F01F5F01C00B7F06C01AD2A889B1
:10082A00B9890BD2EA87FB8700FD10C0151770F44F
:10083A0007FF08C002FF04C00B7F242F115001C01C
:10084A0020E301C020E2FED15150F0CF312F01FF49
:10085A0016C0303099F003FF06C0EE81FF81259162
:10086A00EE83FF8305C0AE81BF812D91AE83BF8326
:10087A00E9D1503009F051503150EBCF48C020E354
:10088A00EE81FF813AD2E887F987EE81FF813296BD
:10089A00EE83FF83E885F985AA85BB85AE17BF0776
:1008AA0050F02F5FA885B985EA85FB85EA1BFB0B0B
:1008BA00EA87FB87EFCF2A3328F003FF02C0295FBC
:1008CA0001C0295D04FD19C0213320F4A885B9852A
:1008DA00119709F409C0531710F000FF01C011C0A5
:1008EA0020E207FF0AC020E3006102FF06C00B7F77
:1008FA004A93B5D1503009F05150A4D1503009F083
:10090A0051503150A885B985129708F0B8CF00FF29
:10091A0007C0503029F05150E0E2EA93A0D1F9CF54
:10092A0010E0EDCEAC85BD85ED91FD91BAD164960E
:10093A000895FF92F82E2697ADD1FE010024EF0DFF
:10094A00F01D46855785042E052A19F4EFEFFFEFAF
:10095A0023C0DE0118960024AF0DB01D8D01488713
:10096A005987E0E0EA87EB87DE011C960024AF0D89
:10097A00B01DED91FD91FA93EA931A930A93EBE471
:10098A00F3E0FA93EA93DE011C96AEDE9F01A88596
:10099A00B985E0E0EC93F90184D12C96FF90089593
:1009AA001A931A2FE5B3EF70AE2FE12FE07FEA2BEF
:1009BA00E5BB8BE18A95F1F7AA9A8BE18A95F1F763
:1009CA00AA988BE18A95F1F783C0AA93A881E8DFF8
:1009DA00E881E295E883A881E3DF88EC90E001975B
:1009EA00F1F7219608958FD0E12FF0E0EC51FA4FFC
:1009FA00E081E00FAE2FE9DF0093E8051093E905E7
:100A0A001981088123960895A2E039D1ACE0DDDF8F
:100A1A00A1E035D1E0E0E093E905E093E805089527
:100A2A001A931A2F1A3031F0E091EA05A091E805DD
:100A3A00AE1758F0E0E0EA93A091E905AF5FA09302
:100A4A00E905D1DF1A3009F443C0E091E805EF5F08
:100A5A00E093E805A89AA12FB8DFA89839C01CD15D
:100A6A009D01D9012F5F3F4FEC911E2FE03019F005
:100A7A00A12FD6DFF6CF17D1249608951A931A2FED
:100A8A00E4B3E06FE4BBA29AA09AA19AAA98A898A4
:100A9A00A9981093EA05E12FE058E093E605E12FC3
:100AAA00E054E093E705A4E1B0E030D1ECD0EBD01C
:100ABA00EAD0A0E275DF80E991E00197F1F7A8E2B8
:100ACA0084DFA4E082DFA5E880DFA6E07EDF9CDF8A
:100ADA0019910895BA93AA93A991B991EE27FF277C
:100AEA006D91662311F03196FBCF0895BA93AA93BC
:100AFA00AA27BB27E991F9910590002011F01196D8
:100B0A00FBCFFD0108951A930A931A2F0A810895BB
:100B1A00E0937A00E0E0F0E0FBBDEABD0895E4E08E
:100B2A00EA93A0E0ADDBA4EFB1E0F0C0E4E0EA9321
:100B3A00A5E0A6DBA6EAB0E0E9D0E4E0EA93A4E007
:100B4A009FDBA6EAB0E0E2D0E4E0EA93A2E098DB19
:100B5A00A6EAB0E0DBD0E3CFE3E0EA93A9E090CBEA
:100B6A00D5D0E3E0EA93ABE08BDBA6EAB0E0CEC0F7
:100B7A0087DBA6EAB0E0CAC0E4E0EA93A2E0F8CFD5
:100B8A00E4E0EA93A5E07CCBE4E0EA93A5E0F0CFC9
:100B9A00E4E0EA93A4E0ECCF37DFE0E0EA93A0E0F8
:100BAA0022CFE1E0F0E0EC15FD050895A0914005A3
:100BBA00B091410511970895E4E0F0E0EC15FD05C8
:100BCA000895E0913C05F0913D050895ED91FD9160
:100BDA003196FE93EE9308950A921A92FA926A93C4
:100BEA007A938A939A93AA93BA93EA93FA93EFB76A
:100BFA00EA930895E1E0F0E0E415F5050895E3E0ED
:100C0A00F0E0E815F9050895E0E0EA93A1E0EBCEFB
:100C1A00E1EBE0938900E0EEE09388000895D201C9
:100C2A00E2E0F0E05CD008956F2F660F660B762F36
:100C3A0068D084E07EDE289608951496ED91FC91A2
:100C4A00119708952A93AD85BE85EF85F889099590
:100C5A000895E889F9893497E88BF98B0895AD8569
:100C6A00BE85EF85F88909950895A889B9891496EA
:100C7A00ED91FD91EE83FF83AE81BF810895A5DEDC
:100C8A00A3E0B0E043C0A0E38BDE80E991E00197E6
:100C9A00F1F708955A934A933A932A931A930A9327
:100CAA0008955D814C813B812A81198108810895CB
:100CBA00F195E195F04008950024112490E1AA0FDE
:100CCA00BB1F001C111C0E1A1F0A18F40E0E1F1E41
:100CDA0001C0A1609A9599F7FD01D0010895E894A1
:100CEA00B7FF04C0B195A195B0406894F7FDE0DF65
:100CFA00E3DFFD010EF4DCDF08950590F491E02DA9
:100D0A0008957A936A93FA93EA930895109639F0BC
:100D1A00A89580EA9FE00197F1F71197C9F708951E
:00000001FF
